:020000040000FA
:10800000485D0020C9800000A58E0000D3800000DC
:10801000D5800000D7800000D9800000000000005B
:10802000000000000000000000000000DB800000F5
:10803000DD80000000000000DF800000E180000023
:1080400041FA00005DFA000079FA000071ED0000CD
:1080500089ED00001DBA00004DFB000081D8000032
:10806000E9EB0000EBEB000099E7000081C40000A1
:1080700083C4000001BB0000000000004DC40000EC
:1080800095B5000097B50000C5F90000E380000039
:10809000E3800000E3800000E3800000E380000054
:1080A000E3800000E3800000E3800000E380000044
:1080B000E3800000DFF80CD000F086FE00480047A7
:1080C00075CD0000485D00200648804706480047FF
:1080D000FEE7FEE7FEE7FEE7FEE7FEE7FEE7FEE778
:1080E000FEE7FEE7A78E0000B580000040EA01032E
:1080F0009B0703D009E008C9121F08C0042AFAD25E
:1081000003E011F8013B00F8013B521EF9D2704721
:10811000D2B201E000F8012B491EFBD270470022C9
:10812000F6E710B513460A4604461946FFF7F0FF76
:10813000204610BD10B54843044605F089F80028D4
:1081400005D00021002C02D0641E0155FAE710BDB5
:10815000F0B480EA0102D40F4200B2EB410F02D228
:108160000246084611464A0042D0C30DDDB2C1F3B3
:10817000C752AD1A202D35DAC1F3160141F40002C1
:1081800004B15242C5F1200602FA06F12A41104418
:10819000B3EBD05F23D0C4B1012DA0EBC35009DCF9
:1081A000F0BC4FF0004202EAC352DBB200F500001F
:1081B00000F039BC400000F1807000EBC350A0F12A
:1081C000807040EAD170490009E0490841EAC07175
:1081D000A0EBC35000F50000400800EBC350F0BC1A
:1081E00000F018BC6142012202EB4101001BF6E7DE
:1081F000F0BC704781F00041AAE780F00040A7E79B
:1082000080EA010210B502F00043400022D04A008B
:108210001FD0010E01EB1261C0F35600C2F35602EB
:1082200040F4000042F40002A0FB022000047F3969
:10823000140400D0401C50EA124001D44000491EF2
:10824000C2B20C0604EBD010401C4008802A02D0B9
:1082500003E0002010BD20F00100002900DA00201A
:10826000184310BD30B480EA010202F0004530F03E
:10827000004221F0004013D090B1C30DD40DC2F3E1
:108280001601C0F31600E41A41F4000140F40002A4
:108290007D34914201D3641C00E04900002C02DAD5
:1082A00030BC002070474FF400000023914201D3FE
:1082B000891A034340084FEA4101F7D151B1914275
:1082C00002D14FF0004105E002D24FF0010101E080
:1082D0006FF0010103EBC450284430BC00F09ABB9E
:1082E000420005D0C0F3C7525242914201DC002047
:1082F000704700EBC15070472DE9FE4F804681EA80
:108300000300C00F0C46009021F0004123F000450F
:10831000B8EB0200A94105D24046214690461C46D2
:108320000B46024623F00040104347D0270DC7F309
:108330000A00C3F30A510290401A019040286BDAF8
:10834000C3F3130040F4801B0098924620B1002331
:10835000D2EB030A63EB0B0B01985946C0F14002C4
:10836000504600F0B4FA06460D4650465946019A6A
:1083700000F0CCFA10EB08006141002487EA1152AA
:1083800084EAE7731A4340D0009A62B3019A012A43
:108390004FEA075215DC001B61EB02014FF000426F
:1083A00002EA0752CDE90042001C41F58011324635
:1083B0002B4600F0EBFB03B0BDE8F08F40462146B2
:1083C000F9E7001B61EB0201001C41F58013001866
:1083D0005B412018A2F5001747EB030140EAD57076
:1083E000B6196D4111E06D084FEA360645EAC075D1
:1083F0004FEA0752001B61EB0201001C41F580119E
:1084000049084FEA30000019514132462B4603B06B
:10841000BDE8F04F00F0ABBB009801224000002304
:10842000D0EB020263EBE073009821464FEAE07460
:10843000B8EB000061EB0401E9E783F000435BE780
:1084400081F0004158E72DE9FE4F81EA030404F072
:10845000004421F0004100944FF0000B23F0004352
:1084600050EA01045ED052EA03045BD0C3F30A541D
:10847000C1F30A552C44A4F2F3340194A0FB025436
:10848000C1F3130141F48011C3F3130343F48013C8
:1084900001FB024400FB034E840A970A44EA81541C
:1084A00047EA8357A4FB076802958D0A05FB0785F9
:1084B0004FEA932C04FB0C542705029D4FEA065803
:1084C00047EA1637B5EB08056EEB070C870E920EE0
:1084D00047EA811742EA8312A7FB0201B6EB0B01C0
:1084E00064EB00042B0D43EA0C335E1844EB1C5084
:1084F000DA465146E7FB0201C5F313044FEA0B339A
:1085000043EA14534FEA0432019C43EA0603A4F100
:108510000C040294009CCDE900B400F037FB03B0DA
:10852000BDE8F08F00200146F9E72DE9F04D81EA22
:10853000030404F0004B21F0004514464FF0000AFC
:1085400023F0004150EA050220D054EA01021DD078
:10855000C5F30A570246C5F31303C1F31300C1F371
:108560000A5640F4801543F48013A7EB0608101B4D
:10857000D64608F2FD3873EB050002D308F1010876
:1085800001E092185B41B8F1000F03DA00200146C8
:10859000BDE8F08D00204FF48011064684460EE0C1
:1085A000171B73EB050705D3121B63EB050306438B
:1085B0004CEA010C49084FEA300092185B4150EA3E
:1085C0000107EDD152EA030012D082EA040083EAE7
:1085D0000501084305D0101BAB4106D20122002340
:1085E00006E000224FF0004302E06FF0010253105A
:1085F0001AEB06004CEB085110EB0A0041EB0B01A3
:10860000BDE8F04D00F0B3BA70B521F0004303436C
:108610000CD0C1F30A550024D5EB040564EB040328
:10862000D617AD1AB34102DB0020014670BD2018F9
:1086300041EB025170BDC10F80EAE0700844CA07E7
:108640009623002100F0EFB996230022114600F096
:10865000EAB90EB5C10F80EAE0700844CA070021EC
:1086600040F233438DE80E000A460B4600F08EFAC6
:1086700003B000BD0EB540F2334102910021CDE9B7
:1086800000110A460B4600F081FA03B000BD00F06D
:10869000004220F00040C10DC0F3160040F400007D
:1086A0007F2901DA00207047962903DCC1F1960189
:1086B000C84001E096398840002AF4D04042704713
:1086C00020F00040C10DC0F3160040F400007F29E7
:1086D00001DA00207047962903DCC1F19601C840F9
:1086E000704796398840704770B5C1F30A5201F05F
:1086F00000450024C1F3130140F2FF3341F480111F
:108700009A4201DA002070BD40F233439A42A2F24D
:10871000334203DC524200F0E9F800E090402C4381
:10872000F1D0404270BDC1F30A5210B5C1F313013C
:1087300040F2FF3341F480119A4201DA002010BD6B
:1087400040F233439A42A2F2334203DC524200F039
:10875000CDF810BD904010BD00F0004230F0004058
:108760000AD0C10D01F56071C0F3160042EA015153
:10877000C2084007114370470020014670470000BF
:1087800030B5041E71F1000404DB4FF00044404298
:1087900064EB0101141E73F1000405DB1C464FF06D
:1087A0000043524263EB04038B4208BF824230BD58
:1087B00030B5041E71F1000404DB4FF00044404268
:1087C00064EB0101141E73F1000405DB1C464FF03D
:1087D0000043524263EB0403994208BF904230BD0C
:1087E00001F0004330B421F0004150EA010206D00C
:1087F0000A0DA2F56072C1F31301002A02DC30BC3D
:1088000000207047440F44EAC104C100E01830BCA6
:1088100000EBC25000F0FEB8002801DBC0F10040C0
:10882000002901DBC1F1004181427047002801DBD2
:10883000C0F10040002901DBC1F1004188427047CE
:1088400030B50B46014600202022012409E021FA20
:1088500002F59D4205D303FA02F5491B04FA02F51D
:108860002844151EA2F10102F1DC30BD2DE9F05FB4
:108870000546002092469B4688460646814640248F
:108880001BE0284641464746224600F02FF8534653
:108890005A46C01A914110D311461846224600F09C
:1088A00016F82D1A67EB01084F46224601200021D9
:1088B00000F00DF817EB00094E41201EA4F1010451
:1088C000DFDC484631462A464346BDE8F09F202A71
:1088D00004DB203A00FA02F1002070479140C2F117
:1088E000200320FA03F3194390407047202A04DB49
:1088F000203A21FA02F00021704721FA02F3D04019
:10890000C2F120029140084319467047202A06DB35
:10891000CB17203A41FA02F043EAE07306E041FA4D
:1089200002F3D040C2F1200291400843194670473B
:1089300007280FD2DFE800F00406080E0E0C0A002C
:1089400005A070470AA0704713A070471DA070478C
:1089500022A070472BA070474E6F206572726F7215
:1089600020286572726E6F203D20302900000000C3
:1089700045444F4D202D2066756E6374696F6E20DF
:10898000617267756D656E74206F7574206F6620F7
:1089900072616E67650000004552414E4745202DCB
:1089A0002066756E6374696F6E20726573756C7482
:1089B000206E6F7420726570726573656E7461628B
:1089C0006C650000454E4F4D454D202D206F757450
:1089D000206F66206D656D6F7279000045494E56B7
:1089E000414C202D20696E76616C6964206172674C
:1089F000756D656E7420746F2066756E6374696F33
:108A00006E000000556E6B6E6F776E206572726F30
:108A1000720000000029A8BF7047401C490008BF31
:108A200020F00100704710B4B0FA80FC00FA0CF09E
:108A300050EA010404BF10BC704749B1CCF12004D6
:108A400021FA04F411FA0CF118BF01212143084363
:108A5000A3EB0C01CB1D4FEA00614FEA102042BF8F
:108A6000002010BC704700EBC35010440029A4BF85
:108A700010BC7047401C490008BF20F0010010BC2A
:108A80007047F0B4002802DCF0BC00207047C0F34F
:108A9000C751C0F3160040F40000CA0701D14000DE
:108AA000491E3F2202EB6105002211464FF40006E9
:108AB00026FA01F31344D418844201D8001B1A4645
:108AC0004000491C1729F3DD5100814202D24FF0CA
:108AD000FF3100E0002102EBC550F0BCFFF79ABF68
:108AE00010B541000CD0C0F3C751962908DC7E298F
:108AF00009DC06DB410204D000F0004040F07E506B
:108B000010BD002010BDC1F19604C4F1200100FA8F
:108B100001F1E040FFF77EFFA04010BDF0B400F08F
:108B2000004221F0004120F00040CE0DC30DC1F302
:108B3000160141F40001C0F316004C42154640F402
:108B40000000761E09E010EB440002D582F00042DE
:108B500040428842F7D840005B1EB342F9DA18B1B0
:108B6000F0BC0021FFF75FBF2846F0BC704710B58E
:108B7000141E73F1000408DA401C41F10001921840
:108B80005B411A4301D120F0010010BD2DE9F04DE9
:108B900092469B4611B1B1FA81F202E0B0FA80F23E
:108BA00020329046FFF793FE04460F4640EA0A0043
:108BB00041EA0B0153465A46084313D0114653EA83
:108BC000010019D0C8F140025046FFF78FFE05465C
:108BD0000E46504659464246FFF779FE084305D0F7
:108BE000012004E020463946BDE8F08D0020054311
:108BF00046EAE0762C4337430A986305E40AA0EB83
:108C000008000022FD0A44EA47540A3002D5002039
:108C10000146E9E7010510196941DDE90845001938
:108C20006941BDE8F04DA2E72DE9F041054621F08C
:108C300000400C46284309D0C4F30A5040F23341A7
:108C4000884205DD28462146BDE8F0812846FBE73D
:108C500040F2FE31884210DC0CDB4FEA043040EA7F
:108C6000155050EA053105D0104804F00041014389
:108C70000020E9E700200146E6E7A0F23340464243
:108C8000C6F1400228462146FFF721FE07468846E6
:108C9000284621463246FFF729FE43463A46FFF76B
:108CA00066FF3246BDE8F041FFF711BE0000F03F1D
:108CB0002DE9FE4FC3F30A5701F000450024C1F32C
:108CC0000A56C3F31303C1F3130143F4801312EBE9
:108CD000020AA64641F48011009543EB030CA7F16C
:108CE000010B16E0B0EB0A0061EB0C01071E71F1FD
:108CF000000707DA4FF00008D0EB080085F00045C8
:108D000068EB0101171A73EB0107EBD3761E00180D
:108D100049415E45F6DA50EA010209D0CDE900E5A5
:108D2000002213460296FFF731FF03B0BDE8F08F33
:108D300020460099F9E7C1F30A52C1F3130140F24A
:108D4000FF3341F480119A4202DA00200146704755
:108D500040F233439A42A2F2334202DC5242FFF71E
:108D6000C5BDFFF7B4BD70B5044601F00045002055
:108D7000054304D14FF00045644265EB010103F067
:108D80000045284305D118464FF00043524263EB9B
:108D90000003101B73EB010002D24FF0004009E00A
:108DA00082EA040283EA01034FF000501A4301D122
:108DB0004FF0C0404FEA2062EFF3008162F31F6181
:108DC00081F3008870BD0000064C074D06E0E068A6
:108DD00040F0010394E8070098471034AC42F6D302
:108DE000FFF76CF980FE0000A0FE00002DE9F04DB9
:108DF00000231A461B1A8A4103DB00200146BDE806
:108E0000F08DC1F30A52C1F3130141F480154FF004
:108E1000000BD10702D100186D41521E00270446F5
:108E200040F2FF11384601EB620A3E468046024698
:108E300000204FF48011FFF759FDC2197141BB1892
:108E400046EB0100B4EB030C75EB000C04D3E41A01
:108E500065EB000517460E46241908F101006D4127
:108E600080463428E3DDF91946EB0600091BA841CA
:108E700003D24FF0FF32134601E0002213461BEBF2
:108E8000070046EB0A51BDE8F04DFFF770BE000049
:108E9000024A1140014302480160704780FFFF1FF2
:108EA00008ED00E0704708B50020009042F2107015
:108EB0000099491C00918142FADB08BD70B500247D
:108EC00004EB840500EB8505D5F82C6505F5A56553
:108ED00046B1641CE4B20A2CF2D30BA000F02EF9C8
:108EE000002070BD6A600A882A800A69EA604969C0
:108EF00029612B816B8190F85416A14202D8641C21
:108F000080F85446012070BD00000000002801D008
:108F100003F094B97047000070B505464FF4CB607C
:108F200004F096F9040004D0294600F009F8204620
:108F300070BD024800F002F9002070BD6C8F000087
:108F40002DE9F0410F4604000BD0D4E900564FF450
:108F5000CB61FFF7E4F8C4E9005627720120BDE8B1
:108F6000F08102A000F0EAF80020F8E7000000001D
:108F700000231A46AFF3008070B50C46054600F09A
:108F80000FF800280BD0A2890AB1A06830B128469A
:108F9000A16800F05DF8284600F091F8012070BD4E
:108FA0002DE9F041074690F8250528B1274800F043
:108FB000C5F80020BDE8F081012587F8255588789F
:108FC00007F21B1608B1088808E07C89C4F30E007C
:108FD000641C7C813C7A0CB140F400400880357000
:108FE000012425464FEAC50E20FA0EFC06F804C0FF
:108FF0006D1E641C6DB2002DF4DA01208D894FEADC
:10900000C00C25FA0CF53555401E641C40B20028F2
:10901000F4DA01208D884FEAC00C25FA0CF535559D
:10902000401E641C40B20028F4DAC7F81C45888949
:10903000C7F8200522B13846FFF740FF0028B9D015
:10904000002087F824050120B4E700006C8F0000A1
:109050002DE9F04714468A460546002600F21B1902
:1090600029E0D5F81C05C0F58062A24200D3224653
:1090700000EB090700210AEB06081FFA82FC0846EC
:1090800005E018F80130491C3B5489B2401C614589
:10909000F7D3D5F81C15A41A08441644C5F81C05C6
:1090A000B0F5806F07D102464946284600F038F8EF
:1090B0000020C5F81C05002CD3D1BDE8F08770B5A1
:1090C0000446D0F82005002504F21B1650B1D4F850
:1090D0001C25B2F5806F05D13146204600F020F8FE
:1090E000C4F81C5531462046D4F81C2500F018F869
:1090F00084F8255570BDF0B587B00E4607461C466E
:10910000154668461821FFF70AF8ADF80460029585
:10911000ADF80C4069463846FFF72AFF07B0F0BDAE
:1091200010B500204FF0402305E00C5C1C605C682B
:10913000E407FCD1401C9042F7D310BD0FB4054B9F
:1091400010B503A9044A029800F0EEFC10BC5DF8CB
:1091500014FB000015C20000B4000020490050EAD2
:10916000C12018BF04204A0D18BF40F0010040F292
:10917000FF72B2EB515F08BF40F00200012808BF48
:10918000052070474100080218BF04200A0E18BFCE
:1091900040F001004FF07F4232EA010108BF40F089
:1091A0000200012808BF05207047000000487047F2
:1091B000C40000202DE9F74F144694B00021C4E903
:1091C00002111599079121F00045C9498D4206DC2D
:1091D0001599C4E9000117B00020BDE8F08FC5491A
:1091E000DFF814A3A9423CDD0799C44E0029C44FFF
:1091F000C44A1599534619DDFFF71FF9554506D0A6
:10920000C14AC24BFFF719F9C4E900010AE04FF067
:10921000D352BE4BFFF711F932463B46FFF70DF92B
:10922000C4E9000117B00120BDE8F08FFFF764F832
:10923000554506D0B44AB54BFFF75EF8C4E90001C6
:109240000AE04FF0D352B14BFFF756F832463B4697
:10925000FFF752F8C4E9000117B04FF0FF30BDE846
:10926000F08FAB49A942159978DB21F00041834684
:109270008846A84AA84BFFF7E6F80022A74BFFF75D
:109280003BF8FFF731FA0990FFF7E3F906460F467E
:109290009C4A5346FFF7D7F843465A46FFF7D0F8A3
:1092A00080468A46984A994B30463946FFF7CBF8B4
:1092B0002A0D01250B9242465346FFF7C1F8032DB4
:1092C000C4E9000139D00B98C1F30A51401A05EBEB
:1092D00045111139814230DA9148C346784400EB98
:1092E0000510CDF80CA00C90D0E90023304639468B
:1092F000FFF7A9F802460B460491069058460399D9
:10930000FFF79BF880468A4602460B46584603996B
:10931000FFF793F8049B069AFFF78FF883460C98A3
:1093200003913946D0E902233046FFF78CF85A46BC
:10933000039BFFF782F86D1CBDE707980028A2BFCA
:10934000099817B0BDE8F08F616881F00041616055
:10935000099817B04042BDE8F08FFFE784461598A2
:10936000C1F31301C0F30A50A0F2F5304FEA6018C0
:1093700000F01F06C6F12000139000200690079011
:1093800041F4801E05206D4676B1664A08EB000167
:109390007A4452F8213002EB8101B3404A681399B4
:1093A00022FA01F1194305E05F4908EB0002794414
:1093B00051F82210A1FB0E27A1FB0C131A449A426C
:1093C00034BF0123002303EB070A05EB8003D3E935
:1093D00001B70F448F4234BF0121002193448B44D5
:1093E00011B1934502D903E0934501D2012100E078
:1093F0000021C3E901B7514445F82010011EA0F136
:109400000100C1DC0298059F00F10050800F12900E
:109410000298DDE903568000FFF71BF983462846D2
:109420000D91FFF727F96FF01D02FFF7EDF8CDE979
:109430000E013046FFF71EF96FF03D02FFF7E4F82A
:1094400080468A463846FFF715F96FF05D02FFF750
:10945000DBF80746424653461191FEF74DFFDDE922
:109460000E23FEF749FF5A460D9BFEF745FF0025E8
:109470000E465A4628460D9BFEF7DFFFDDE90E2318
:10948000FEF7DBFF42465346FEF7D7FF3A46119BF5
:10949000FEF7D6FFDFF898A0244A5346FEF7D3FF25
:1094A00007468846234A244B31462846FEF7CBFF21
:1094B0003A464346FEF720FF074688464FF0A8424B
:1094C000534631462846FEF7BEFF3A464346FEF76E
:1094D00013FF159A12F0004F04D0129A81F0004148
:1094E00052421292C4E90001129817B0BDE8F08F01
:1094F000FB21E93F7CD90240FB21F93F7370032E29
:109500008A19A33B000040543163621A61B4D03D14
:10951000FB21394183C8C96D305FE43F0000E03F63
:10952000906A00000C6A0000EE690000182D445497
:10953000FB21F93D3326A611460B113C2DE9FF4DC9
:1095400021F0004807460C46B8F1795F08DAFFF7CA
:10955000CBF8002801BF0020324904B0BDE8F08DEF
:109560003A46234610461946FEF76DFF0546024669
:109570002D480E460B460621784400F05DF82A4639
:109580003346FEF760FFDDE9022382468B4638460C
:109590002146FEF758FF04460F4652465B462846D2
:1095A0003146FEF750FF22463B46FEF746FF074690
:1095B0008A464FF0FF3228463146FFF725F81B4A0E
:1095C00090450ADA3A465346FEF737FF04B00022C8
:1095D000BDE8F04D134BFEF733BF154A4245A8BF17
:1095E000A8F500154FF00004B8BF124D22462B46D7
:1095F000FEF723FF0646884622462B4600200949EF
:10960000FEF71BFF04460D463A4653463046414698
:10961000FEF713FF04B022462B46BDE8F04DFEF7DF
:109620000FBF00000000F03F846700003333D33FDA
:109630000000E93F0000D23F2DE9F0414F1E00EB52
:10964000C7010446D1E9000115461E4637F006025F
:109650000DD02A463346FEF7F6FE7F1E04EBC70305
:10966000D3E90023FEF748FE37F00602F1D1022FBE
:1096700025D0042F13D0062F18BFBDE8F0812A464D
:109680003346FEF7E0FED4E90A23FEF735FE2A460C
:109690003346FEF7D8FED4E90823FEF72DFE2A460E
:1096A0003346FEF7D0FED4E90623FEF725FE2A4610
:1096B0003346FEF7C8FED4E90423FEF71DFE2A4612
:1096C0003346FEF7C0FED4E90223FEF715FE2A4614
:1096D0003346FEF7B8FED4E90023BDE8F041FEF7BB
:1096E0000BBE00002DE9FF4D054621F0004084B07F
:1096F0000C46B0F1795F0BDA2846FFF72FFD0428FE
:1097000008BF00F07FF8284608B02146BDE8F08D7C
:109710002A460B461046FEF796FE06460F462A4698
:109720002346FEF790FE804626488A4632463B4650
:1097300005217844FFF780FF83461098029160B3BB
:10974000214A224B40465146FEF77DFECDE90001FD
:109750005A4640465146029BFEF775FE82468846B1
:10976000DDE906014FF0FF32FEF74EFF5246434659
:10977000FEF763FE32463B46FEF765FEDDE9062353
:10978000FEF75BFEDDE90023FEF757FE08B02A4630
:109790002346BDE8F04DFEF753BE0B465A46304611
:1097A0003946FEF750FE084A084BFEF7A5FD424633
:1097B0005346FEF748FE08B02A462346BDE8F04D62
:1097C000FEF79ABD22670000495555555555C5BF4E
:1097D0000022134610460149FEF7A7BE0000F03FE5
:1097E0000122FEF711BFFEF787BD00221346104687
:1097F0001146FEF79ABE40F2013200204FF0E041E0
:10980000FEF702BF024A00201107FEF7FDBE00006E
:1098100001FDFFFF0121FEF763BDFEF799BC0021AA
:109820000846FEF71FBD6FF05E010807FEF758BD42
:109830002DE9F04D0D4614464FF07F41B1EB440F3A
:109840009EBF4FF0FF312960BDE8F08D4FF0004022
:1098500040EA0421C4F3C750783810F01F024A4B85
:109860004FEA601CC2F120067B44C4F3C750A0F14C
:1098700078004FEA601003EB800053F82C3008BFEB
:10988000D0E901C612D0D0F804C093402CFA06F7F4
:109890003B4387680CFA02FC27FA06F8C06807FA0F
:1098A00002F2F0404CEA080C42EA0006A3FB013247
:1098B000ACFB01C0A6FB016101EB0C068E4234BF7C
:1098C0004FF0010C4FF0000CC1186144BCF1000FC7
:1098D00002D0814202D903E0814201D2012000E09E
:1098E0000020104400F120024FEA92188006CA0CB2
:1098F00040EA42304F03C5F80080FEF79CFE8246E6
:109900003846FEF7A1FE6FF01201FEF7E9FC0746AC
:109910003046FEF799FE6FF02501FEF7E1FC834625
:1099200039465046FEF714FC5946FEF711FC00F587
:1099300000666FF30B0651463046FEF75BFC394676
:10994000FEF758FC5946FEF758FC1049FEF758FC44
:1099500007460F493046FEF753FC3946FEF7F8FB41
:1099600007460C493046FEF74BFC3946FEF7F0FB44
:1099700014F0004F08BFBDE8F08DC8F1805180F0B1
:1099800000402960BDE8F08DCC650000DB0FC92FD9
:1099900022AAFD290000C92F02E008C8121F08C131
:1099A000002AFAD170477047002001E001C1121F60
:1099B000002AFBD170470000014908607047000091
:1099C000C40000202DE9FF5FDDE90220010DDDF874
:1099D00038B0024318D044F61050A1F2FF31414391
:1099E0000D140F98012820D0A5EB0B00401C5FEA56
:1099F000000A4FF00004474EDFF81C91A046504685
:109A000016D5CAF1000728E00F98012443A20128C7
:109A100008D0002100980F9BC0E90021C0E9024353
:109A2000BDE8FF9F6FEA0B01F4E7CBF10000DEE732
:109A3000074612E0F80707D022463346404649461B
:109A4000FEF701FD804689462246334610461946F8
:109A5000FEF7F9FC04460E467F10002FEAD1DDE93F
:109A60000201BAF1000F42464B4602DAFEF7EBFC68
:109A700001E0FEF75AFD04460E460022284BFEF791
:109A800097FE03D84FF0FF30014607E00022254B38
:109A900020463146FEF730FCFFF74DF9102409E06F
:109AA000002C0ADB0A220023FEF7E0FE019B303285
:109AB0001A55641E50EA0102F2D1641C019AC4F1E5
:109AC000110314440F9A012A03D0012208430DD137
:109AD0000AE0084304D000204FF0110B0F9080E7FC
:109AE000A3EB0B056D1E0DE05B4504DD4FF000029E
:109AF00005F1010504E003DA4FF00002A5F10105CC
:109B0000002AECD000980F99C0E90231C0E9004565
:109B100086E70000000024400000F03F3000000015
:109B20000000F0430000E03F2DE9FF4F95B09B4659
:109B30008946064600250FE2252877D100242746CE
:109B4000F84A0121059400E0044316F8013F203B48
:109B500001FA03F01042F7D130782A2811D06FF0C3
:109B60002F033078A0F13002092A16D8059A44F064
:109B7000020402EB820203EB42021044761C0590C1
:109B8000EFE759F8042B0592002A03DA504244F417
:109B90000054059044F00204761C30782E2816D12B
:109BA00016F8010F44F004042A280DD06FF02F029C
:109BB0003078A0F13003092B09D807EB870302EBBB
:109BC0004303C718761CF3E759F8047B761C3078FA
:109BD0006C280FD006DC4C2817D068280DD06A28D6
:109BE00014D104E0742810D07A280FD10DE044F489
:109BF00000140AE044F4801401E044F44014727844
:109C0000824202D104F58014761C761C30786628D6
:109C10000BD013DC582877D009DC002875D04528F4
:109C2000F6D04628F4D047281AD19DE118E06328E1
:109C300035D0642879D0652812D195E1702873D089
:109C400008DC6728F1D069286FD06E280DD06F2806
:109C500006D1B5E073282CD0752875D0782874D03B
:109C60005A46179990476D1C75E1C4F302500228BB
:109C700009D003280DD0D9F8001004280DD00D60AC
:109C800009F1040967E1D9F80010EA17C1E90052A7
:109C9000F6E7D9F800100D80F2E70D70F0E719F83B
:109CA000041B8DF8001000208DF80100EA46012009
:109CB00003E059F804AB4FF0FF3061074FF00001AB
:109CC00002D40DE008F101018846B9420FDA80455F
:109CD000F8DB1AF808100029F4D108E008F10101B6
:109CE00088468142FADB1AF808100029F6D1059857
:109CF0005B46A0EB080721463846179A00F094FA15
:109D0000284400EB080507E04DE029E10DE01AF8D2
:109D1000010B5A4617999047B8F10108F7D25B46F4
:109D200021463846179A13E142E00A220092C4F312
:109D300002524FF0000A022A08D059F804CB032A35
:109D40004FEAEC710AD00DE029E02AE009F10701A1
:109D500021F00702F2E802C1914609E00FFA8CFCFB
:109D60004FEAEC71042A03D14FFA8CFC4FEAEC71F4
:109D7000002907DA0A460021DCF1000C61EB020140
:109D80002D2202E0220504D52B228DF80420012289
:109D900003E0E20701D02022F7E7904659E00A21CC
:109DA00002E010220DE010214FF0000A00910BE0BC
:109DB00010224FF0000A44F004040827009203E048
:109DC00008224FF0000A0092C4F30252022A05D082
:109DD00059F804CB0021032A08D009E009F1070152
:109DE00021F00702F2E802C1914605E01FFA8CFC5F
:109DF000042A01D10CF0FF0C4FF00008220728D5EF
:109E0000702806D0009B83F0100353EA0A0305D0A4
:109E10000EE040228DF80420012208E05CEA0102F5
:109E200006D030228DF804208DF8050002229046DD
:109E3000009B83F0080353EA0A030AD15CEA01029B
:109E400001D1620705D530228DF804204FF00108BA
:109E50007F1E582804D034A003900EA802900DE075
:109E600036A0F9E753466046009AFEF7FFFC8446A9
:109E70000398825C0298401E029002705CEA010026
:109E8000F0D1029806A9081A00F1200A600702D54D
:109E900024F4803400E00127574502DDA7EB0A00D7
:109EA00000E0002000EB0A01009005984144401AB0
:109EB0000590E00306D45B462146179A059800F00A
:109EC000B3F90544002706E001A85A46C05D17997A
:109ED00090476D1C7F1C4745F6DBE0030CD55B46C5
:109EE0002146179A059800F09FF9054404E03020B8
:109EF0005A46179990476D1C0099481E00900029FA
:109F0000F5DC08E0029802995A460078491C029153
:109F1000179990476D1CBAF10001AAF1010AF1DC12
:109F200065E100000928010030313233343536371D
:109F30003839616263646566000000003031323395
:109F40003435363738394142434445460000000035
:109F500000F058F90544761C307800287FF4ECAD09
:109F600019B02846BDE8F08F620700D4062709F132
:109F7000070222F0070CFCE80223E14603F0004848
:109F80005FEA080C02D00FF2702C0DE05FEA045C6F
:109F900002D50FF2682C07E05FEAC47C02D00FF212
:109FA000602C01E0AFF2700C4FF0FF3823F000435B
:109FB000CDF850C065280CD006DC452809D04628CD
:109FC0001DD047283DD13DE0662818D067287ED1B6
:109FD00038E00021112F01DB112000E0781CCDE9D1
:109FE000000106A90EA8FFF7EDFCDDE90F010E9AAE
:109FF00003910021009207F1010A04914DE04FF016
:10A0000000400097CDE9011006A90EA8FFF7DAFC81
:10A01000DDE90F0203920E9B11990022DDF80CA0DE
:10A020000093049211B9791C00EB010AB7EB0A0006
:10A0300004D4C0F1FF3007F1010A0490AAEB070035
:10A04000019044E0012F00DA01270021112F01DDEA
:10A05000112000E03846CDE9000106A90EA8FFF75F
:10A06000B1FCDDE90F010E9A0391002104910092E9
:10A07000BA4621070CD40399514500DA8A46BAF151
:10A08000010F05DD009AAAF10101515C302908D0C9
:10A09000B84202DA10F1040F06DA0121CDE901100D
:10A0A00015E0AAF10101E9E7002805DC0499014463
:10A0B0000491AAEB000102E0411C514500DD8A46F3
:10A0C0000499401A401C01904FF000400290200774
:10A0D00004D40198504501DBCDF8048000208DF8B0
:10A0E0004F0002980DF14F07B0F1004F25D02B2003
:10A0F0000E9002984FF0020800280CDA40420290BD
:10A100002D200E9007E00A210298FEF799FB3031CE
:10A11000029007F8011DB8F10001A8F10108F2DC76
:10A1200002980028EFD1791E0E980870307800F060
:10A13000200040F0450007F8020D12A8C01B00F1F6
:10A1400007081498007800B1012000EB0A0101987B
:10A1500001EBE07105984144401A401E0590E00370
:10A1600006D45B462146179A059800F05DF8054431
:10A170001498007818B15A46179990476D1CE0035F
:10A1800024D55B462146179A059800F04DF8054402
:10A190001CE00498002807DBDDE90301884203DDA9
:10A1A0000098405C179901E0179930205A46904773
:10A1B000049805F10105401C04900198401E01908F
:10A1C00004D12E205A46179990476D1CBAF1000110
:10A1D000AAF1010ADDDC05E017F8010B5A461799D0
:10A1E00090476D1CB8F10001A8F10108F4DC5B4652
:10A1F0002146179A0598ABE62D0000002B000000C1
:10A20000200000002DE9F041044600251E461746B7
:10A21000880404D405E039462020B0476D1C641E34
:10A22000F9D52846BDE8F0812DE9F0410446002526
:10A230001E469046C80301D5302700E02027880439
:10A2400004D505E041463846B0476D1C641EF9D57B
:10A250002846BDE8F08170B500252C4648430CE047
:10A2600002EB440132F91460B1F90210764301FBAC
:10A27000016143F82510A41C6D1CB4EB400FEFDB0B
:10A2800070BD0000F0B507AC94E8A050104CD4F8B5
:10A290002C6126F4702646EA004020F4700040EA63
:10A2A000015020F0706040EA026020F0704040EA07
:10A2B0000370C4F82C010020C4F8300145EA0710EF
:10A2C00040EA0C2040EA0E30C4F83001F0BD000036
:10A2D0000030004006490128D1F8640104D020F480
:10A2E0000070C1F86401704740F40070F9E70000A5
:10A2F0000030004008B10A4801E041F61A20094A3E
:10A30000C2F8E00009B1100100E00020C2F8F80036
:10A310003020C2F874023120C2F878027047000081
:10A320001A1A030000300040490341EA4042144831
:10A33000016C0A431349C1F8A820026841F8682F4C
:10A3400042684A6082688A60C268CA6002690A61BB
:10A3500042694A6182698A61C269CA61026A0A62A3
:10A36000426A4A62826A8A62C26ACA62026B0A638B
:10A37000426B4A63826B8A63C06BC863704700009C
:10A380006000002000200240094B5A6A012809D0D1
:10A3900022F00300012908D020F00C005862602050
:10A3A0001863704742F00300F4E740F00C00F5E753
:10A3B000002002402DE9FF5F9E461446DDE90FBAFA
:10A3C000002204230127DFF8BC902F4E4C43DDF818
:10A3D00038C04FF00C08A5B220B1012812D00228D5
:10A3E0002BD022E003928DE82801002362467146BB
:10A3F000012001F0D1F8C9F84870B06A8442FCD855
:10A40000012010E00D20CDE90202CDE90035002346
:10A4100052465946022001F0BFF8C9F84870B06BA7
:10A420008442FCD8022001F0F7F804B00021BDE816
:10A43000F05F4FF4A87000F01FBF002003900421CC
:10A440008DE82201034662467146012001F0A4F81E
:10A45000002104220D20CDE90025CDE902010B46A3
:10A4600052465946022001F097F8C9F84870B16A7F
:10A47000B06B8C42FBD88442F9D8012001F0CCF8B3
:10A48000D0E700000020024000100240920042EAA3
:10A490004101014301484163704700000020024030
:10A4A0002DE9F04388B0984691460D460646C30014
:10A4B000CC000F9FFFF71EFF0594049406940794A9
:10A4C0000093CDE901341A46194618460394FFF764
:10A4D000D9FE4046FFF7FEFE29463046FFF754FFFF
:10A4E000802200214846FFF7D1FF03210020FFF71B
:10A4F0001BFFB8B200904FF42F61032380224FF46A
:10A50000616000F075FE08B0BDE8F0837CB5474D92
:10A510002868C60046480068C400464801684648A6
:10A52000006805F077FA454801684548006805F07D
:10A5300055FA3F480168286804F04CF93C48016826
:10A54000286802F0FFFE3A480168286802F0DCF94A
:10A5500032461146009423460846019402F0B0F9B1
:10A56000012000F08BFC32480168286804F034F8C0
:10A570003448036834481A460168084604F046F82F
:10A580002146304604F018F829480168286804F08C
:10A590006BF82E4803682E481A460168084604F0F6
:10A5A0007DF82146304604F04FF800231A4619463C
:10A5B000184603F085FF02231A461946184603F091
:10A5C000A5FF2448036824481A460168084604F099
:10A5D000ABFB2248036822481A460168084603F08C
:10A5E0002BFF20480168084602F018FF1E48036848
:10A5F0001E481A460168084602F0DAFE1C48016847
:10A60000084603F0BFFF1B48D0F8201241F4007148
:10A61000C0F82012D0F8241241F40071C0F82412BE
:10A620001549162041F8900F48607CBD00000020BD
:10A63000040000200C000020080000205000002032
:10A640004C00002018000020100000201C000020FA
:10A65000140000203C0000203000002040000020BA
:10A660003400002048000020440000203800002072
:10A6700020000020003000400000024010B5002102
:10A68000012004F03FF902210A2001F0CFFE02214F
:10A690000B2001F0CBFE002002F010FE0023202250
:10A6A0004FF47A71012004F085F803F085FE024929
:10A6B0000820C1F8800010BD0030004010B501280E
:10A6C00018D00121002002F031FF0021084603F0DC
:10A6D000ABF800220321104603F082F800231A464B
:10A6E0001946184600F0DAFB0121BDE810400020B1
:10A6F00000F068BD00231A461946012000F0CEFB89
:10A700000021322000F0B8FD002301221946104636
:10A7100000F0C4FB0021322000F0AEFD012108460C
:10A7200002F004FF0021322000F0A6FD00210120EC
:10A7300003F07AF80021322000F09EFD012203216F
:10A74000104603F04DF80021322000F095FD002165
:10A75000012000F037FD0021322000F08DFD0121A5
:10A760001D2001F079FE00211D2001F05FFE012176
:10A77000162001F071FE0021BDE81040162001F006
:10A7800055BE00002DE9FF5F9846DDE90FAB91460D
:10A790000D46044602F0C8FE012002F0B3FE02F0AE
:10A7A0003FFF012002F018FF02F0E4FE1B4F4FF4C0
:10A7B0007A663146384602F03FFF0021CDE9001BA2
:10A7C0004FF4A87360223146384601F03FFA5146F3
:10A7D0000E9803F0D7FE12490120C1F8780200203C
:10A7E00001F066FC44EA050040EA090040EA08007E
:10A7F000014603F071FF2346424649460120009579
:10A8000003F042FE082000900190029003460246A9
:10A810000146039000F060FBBDE8FF9F00009842F6
:10A820000030004010B50C4600F0ACFC48B1616847
:10A8300069B1A1684860A0602088401C2080002089
:10A8400010BD204601F0FAFC6FF0020010BD606000
:10A85000F1E700002DE9F04D8D4F21F0004A86B060
:10A8600005460C46BA452ADBAAEB070028430AD066
:10A870008848824501DC1AD1CDB106B02846BDE832
:10A88000F04DFEF7ADBF844A844B2846FDF7DBFD53
:10A8900007460E46824A834B28462146FDF7D3FDE4
:10A8A00006B03A463346BDE8F04DFDF725BD012020
:10A8B000FFF782F806B0BDE8F04DFEF796BF7A4884
:10A8C000824542DABAF1795F0BDA2846FEF746FC98
:10A8D000042808BFFEF796FF284606B02146BDE8CB
:10A8E000F08D2A460B461046FDF7ADFD8346024625
:10A8F0006E480E460B4606217844FEF79DFE5A46EA
:10A900003346FDF7A0FD804669488A465A463346DD
:10A9100004217844FEF790FE5A463346FDF793FD36
:10A9200000223B46FDF7E8FC02460B4640465146F6
:10A93000FDF7FBFD2A462346FDF785FD06B02A46B6
:10A940002346BDE8F04DFDF7D7BC284624F0004172
:10A9500000223D463B46FDF773FD4FF0FF32FDF709
:10A9600053FE0646024653480F460B4606217844DE
:10A97000FEF762FE32463B46FDF765FDCDE900017C
:10A980004D4832463B4604217844FEF755FE324698
:10A990003B46FDF758FD00222B46FDF7ADFC8346F4
:10A9A00002913046394604F065F9804643480D4629
:10A9B000504517DCDDE900015A46029BFDF7B5FD65
:10A9C00042462B46FDF73FFD42462B46FDF794FCE1
:10A9D0000122FDF719FE304A304BFDF72EFD304ABB
:10A9E000304B4CE04FF0000A52460B464046FDF714
:10A9F00083FCCDE9031052462B4610461946FDF75D
:10AA000022FD32463B46FDF71BFDDDE90332FDF733
:10AA10008CFD06460F46DDE900015A46029BFDF714
:10AA200084FD83460091012230463946FDF7ECFD56
:10AA3000194A1A4BFDF704FD06460F46012240460F
:10AA40002946FDF7E1FD5A46009BFDF7FCFC324626
:10AA50003B46FDF7F2FC06460F46012250462946CA
:10AA6000FDF7D2FD0E4DDFF858802A464346FDF72C
:10AA7000E7FC32463B46FDF7E3FC2A464346FDF73A
:10AA8000DFFC002CD8BF81F0004106B0BDE8F08D9E
:10AA90000000F03F0000F07F075C143326A6913CD5
:10AAA000182D4454FB21F93F0000E03F2C530000D7
:10AAB00042530000B6520000CC5200003333EF3F47
:10AAC000FB21E93F2DE9F04104464FF00E4000EB39
:10AAD0004400B0F1506F204655D84FF0FC41B1EB27
:10AAE000440F1CD224F000404FF07E51FDF785FB4F
:10AAF0004FF0FF31FDF7F4FB054604F0E1F814F0E8
:10AB0000004F1DBF2F4F304E80F000402F4F08BF29
:10AB10002F4E4FF04041FDF773FB044605E0002740
:10AB20003E460146FDF76CFB05462A492846FDF7DF
:10AB300067FB2949FDF70CFB2946FDF761FB274917
:10AB4000FDF706FB2946FDF75BFB2549FDF700FBFA
:10AB50002946FDF755FB2349FDF7FAFA80462946B9
:10AB60002046FDF74DFB4146FDF74AFB05463146C1
:10AB70002046FDF7EDFA2946FDF7EAFA3946BDE829
:10AB8000F041FDF7E5BA4FF0E441B1EB440F08D9CD
:10AB9000FEF7F8FA042808BFFEF745FE2046BDE898
:10ABA000F0814FF07F41B1EB440F03D2BDE8F0419B
:10ABB000FEF730BE0120FEF7FFFEBDE8F041FEF7D4
:10ABC0002EBE00000000C9BF22AAFDB90000C93F87
:10ABD00022AAFD3924FE1C3DC78AD83C1E67383D99
:10ABE0001B93993DAFAA2A3E0A46014601A0FEF7F3
:10ABF000A5BA000057726F6E6720706172616D6553
:10AC0000746572732076616C75653A2066696C654F
:10AC10002573206F6E656C696E652564200D0A00D2
:10AC20002DE9F0474FF0684202EB40030C46054621
:10AC3000B3F1654F3CBF02EB4102B2F1654F7CD2EC
:10AC4000C0F3C753C1F3C7529A1A1B2A06DD10F08E
:10AC5000004F14BF76487748BDE8F08712F11A0F0D
:10AC600017DA11F0004F06D010F0004F0CBF7248F9
:10AC70007248BDE8F08721462846FDF7F3FA0446FE
:10AC8000FEF780FA042808BFFEF7CDFD2046BDE898
:10AC9000F0874200B2EB410F25D910F0004F19BFE9
:10ACA000674F684E684F694E224685F0004415464E
:10ACB0000A4680F0004110460A1A5200B2F1807F25
:10ACC00040D248406249DFF88CA110F0004F18D004
:10ACD0004FF03F483846FDF78DFA0746514630465B
:10ACE000FDF788FA17E011F0004F04BF0026374641
:10ACF000E2D010F0004F19BF574F584E584F594EE1
:10AD0000DAE74FF07C583846FDF722FA07465146FD
:10AD10003046FDF71DFA064641462846FDF770FA13
:10AD20002146FDF715FA824621464046FDF768FAAE
:10AD30002946FDF762FA514600E037E0FDF792FA46
:10AD4000044604E021462846FDF78CFA04460146F5
:10AD5000FDF756FA80464449FDF752FA4349FDF79C
:10AD6000F7F94146FDF74CFA4149FDF7F1F9414643
:10AD7000FDF746FA3F49FDF7EBF94146FDF740FA8A
:10AD80003D49FDF7E5F9054641462046FDF738FA0D
:10AD90002946FDF735FA3146FDF7DAF92146FDF788
:10ADA000D7F93946BDE8F047FDF7D2B94FF07F42F9
:10ADB000B2EB400F28BFB2EB410F03D2BDE8F04722
:10ADC000FEF72BBD40EA01035B0008BF44F0FF41E2
:10ADD0000AD0B2EB400F08BFB2EB410F06D125F00D
:10ADE000804024F0804105460C4629E7B2EB400F35
:10ADF00012BF5FEA410245F0FF4004F000413FF41A
:10AE00001FAF4A0092EA40033FF51AAF002AACBFD9
:10AE10004FF09F464FF03E563146FDF7F1F905469B
:10AE200031462046FDF7ECF904462846214607E75F
:10AE3000DB0FC9BFDB0FC93FDB0F4940DB0F49C048
:10AE40000000C9BF22AAFDB90000C93F22AAFD39EE
:10AE50000060ED3EC30ACE37000049C022AA7DBA89
:10AE60000000494022AA7D3A2DAD65BD8FB8D53D81
:10AE70000FB511BE61C84C3EA8AAAABE064901285A
:10AE8000D1F8200104D020F48070C1F8200170476F
:10AE900040F48070F9E700000030004041EAC3014F
:10AEA0000B4BC3F8BC110B490128C86909D020F429
:10AEB0008070C861C869012A06D020F40070C8619A
:10AEC000704740F48070F4E740F40070F7E700004A
:10AED0000030004000C00040F0B505AC94E8E01040
:10AEE000002444EA007040EA016040EA025040EA6F
:10AEF000034040EA053040EA0620044940EA0710D2
:10AF000040EA0C00C1F81801F0BD0000003000401C
:10AF10002DE9F0470746DDE9089A154688461846A8
:10AF2000FDF789FB06465146FDF76AF904462846B7
:10AF3000FDF781FB05464946FDF762F92146FDF71D
:10AF400059F9FDF7A4FB388030464946FDF758F91A
:10AF5000044628465146FDF753F92146FDF7F8F817
:10AF6000FDF795FBA8F80000BDE8F08700B5244B7D
:10AF700021F0004287B09A42DCBF0022134629DD4F
:10AF8000204B9A4208D140B94FF00100FEF714FD62
:10AF9000FEF72BFC07B000BD03DBFEF721FC07B07A
:10AFA00000BD02AAFEF706F910F0030104BF0DF17F
:10AFB000080C9CE80F000DD0012001290ED00229B9
:10AFC00014D00DF1080C00909CE80F00FEF78AFBEE
:10AFD00007B000BDFEF7B2FA07B000BD0DF1080CD6
:10AFE00000909CE80F00FEF77DFB05E00DF1080CDA
:10AFF0009CE80F00FEF7A2FA07B081F0004100BD07
:10B00000FB21E93F0000F07F2DE9F84304460246AA
:10B010004F486946B0EB420F09D94FF0E640B0EB1C
:10B02000420F94BF00204FF0FF30009030E0494BBA
:10B0300022F00040834271D947492046FDF7E0F8ED
:10B04000FDF74EFD8046FDF722FB00F00300009067
:10B0500042494046FDF7D4F8054641494046FDF7D0
:10B06000CFF806463F494046FDF7CAF807463E4935
:10B070004046FDF7C5F82146FDF7BFF83946FDF714
:10B08000B9F83146FDF7B6F82946FDF7B3F804469E
:10B090002546009C002C45DB294614F0010F08468C
:10B0A0001CD0FDF7ADF806463049FDF7A9F8304948
:10B0B000FDF7A3F83146FDF7A3F82E49FDF748F850
:10B0C0003146FDF79DF82946FDF79AF82946FDF728
:10B0D0003FF814F0020F1CD0BDE8F883FDF790F89C
:10B0E00005462549FDF78CF82449FDF731F8294636
:10B0F000FDF786F82249FDF72BF82946FDF780F881
:10B100004FF07E51FDF724F814F0020F08BFBDE8A0
:10B11000F88380F00040BDE8F883FFE71046FEF7B3
:10B1200087FBB4E76800B0F17F4F3CBF4FF07E5023
:10B13000BDE8F88307D14FF00100FEF73DFCBDE804
:10B14000F843FEF76CBB2846BDE8F843FEF762BB48
:10B15000B61F927E490E494683F9223F1A61342C6C
:10B160000020A23300A0FD390000C93F336D4C39E7
:10B17000DA82083CA0AA2ABEB93AB2BACA9F2A3DCE
:10B18000DDFFFFBE70B5054608210120FCF7D2FFA8
:10B19000040004D0258000206060204670BD02A01D
:10B1A00002F0E6F8F9E700004661696C6564207416
:10B1B0006F20616C6C6F63617465206E6F64652EC7
:10B1C00000000000094BD3F81021012808D022F01C
:10B1D0000800012907D020F00100C3F810017047D2
:10B1E00042F00800F5E740F00100F6E700300040CB
:10B1F00030B55B1C02FB13056D1A0549039C4D65B8
:10B200005A438A650865CC650020886330BD00001C
:10B21000002002402DE9F04F89B0824600251698A3
:10B220001746401E9846894686B22C46DDF850B037
:10B230001CE00AEB44104069401C15D117984B469E
:10B24000CDE9066015985246CDE904B0DDE912015A
:10B25000CDE90201CDE900782946204600F0F9FB4E
:10B26000012801D16D1CADB2641CA4B24C45E0D3E1
:10B2700009B0BDE8F08F000010B50D4C002222602F
:10B2800001290BD000EB4001C1EBC0100021401E92
:10B2900000F0D2FB20680128FCD110BD00EBC001FA
:10B2A00001EB00104FF0FF3101EB40000021EFE710
:10B2B000A800002070B505000CD0686803E0446861
:10B2C00000F0BCFF20460028F9D12846BDE87040B8
:10B2D00000F0B4BF70BD00002DE9F04F8A46032393
:10B2E00091B000210546954A0B910C910D910E915C
:10B2F00008460F9102EBC014401C00B22164802864
:10B30000F8DB032B53D109278C48002400EBC71925
:10B310001A9859F82410814241D3102C02D204F11A
:10B32000100001E0A4F1100080B200EB4710844946
:10B3300080000144B1F900B0B1F9028081490144B3
:10B34000B1F90060B1F902C07F490144B1F90020B0
:10B35000B1F902307D490844B0F90010B0F902009B
:10B36000CDF81080CDE90910CDE907230CA8CDE96F
:10B370000007CDE9056CCDE9024B0BAB0FAA0EA976
:10B380000DA800F06DF95FEA000814D0B8F1010FC4
:10B3900051D0B8F1020F4ED06DA0FDF7CFFE641C66
:10B3A000A4B2202CB4D37F1CBFB2802FACD311B079
:10B3B0002846BDE8F08FDDE90D01FCF7C9FE4FF02E
:10B3C000FF384146FCF78CFF6D4901EB4516F060F4
:10B3D00059F8241071603781748101213170A6F809
:10B3E00010A0C6F81480FDF7B7F9664A664BFDF762
:10B3F0002AF803F0E5FA834638460191FDF73AF959
:10B40000624A634BFDF71FF880465A460091019B44
:10B41000FDF719F8FDF7E4F9B061F068FDF79CF964
:10B42000584A594BFDF70FF8FFF7A0FD02460B46AF
:10B430004046009978E0524859F8241000EB451630
:10B4400001207160378174813070A6F810A0801ED1
:10B4500070610B98F060FDF77FF94A4A4A4BFCF7A0
:10B46000F2FF03F0ADFACDE904013846FDF702F929
:10B47000464A474BFCF7E7FFCDE90010DDE904231E
:10B4800083460291FCF7DFFFFDF7AAF9B0610B9844
:10B49000FDF762F93B4A3C4BFCF7D5FFFFF766FD31
:10B4A00002460B4658460299FCF7CDFFFDF798F986
:10B4B0006D1CADB2F061642D3FF479AFB8F1020FAD
:10B4C0007FF46DAF2E4859F8241000EB451601208B
:10B4D0007160378174813070A6F810A0801E706191
:10B4E0000C98F060FDF738F9DFF898B0DFF8988035
:10B4F0005A464346FCF7A7FF03F062FA02460B46A2
:10B50000DDE90010FCF79FFFFDF76AF9B0610C98C8
:10B51000FDF722F95A464346FCF795FFFFF726FD53
:10B5200002460B46DDE90010FCF78DFFFDF758F9E8
:10B530006D1CADB2F061642DBED030E7000002207A
:10B540000080012000C000200080002000000120B9
:10B550006E756D206F6620616E676C657320726515
:10B560007475726E20627920616E676C6520464644
:10B570005420697320696E63636F7272656374002F
:10B58000C8000020EC51B81E85EB913FE25817B778
:10B59000D100AE3F70477047F0B50025DDF814E0EC
:10B5A000DDE9066C03EB0E4E1A4B089F1E4346EA7C
:10B5B000C753174C43F0D85343EA8C4305280AD2AB
:10B5C000DFE800F0030A11181F0021616261C4F86E
:10B5D00068E0E560E360F0BD21626262C4F86CE09F
:10B5E000E561E361F0BD21636263C4F870E0E56288
:10B5F000E362F0BD21646264C4F874E0E563E36370
:10B60000F0BD21656265C4F878E0E564E364F0BDEF
:10B6100000100240000002801049052808D2DFE82F
:10B6200000F003080D121700C86820F00040C86041
:10B630007047C86920F00040C8617047C86A20F0B0
:10B640000040C8627047C86B20F00040C863704774
:10B65000C86C20F00040C864704700000010024031
:10B660002DE9FF4FADF6940D4FF4007102A8DDF8FF
:10B67000D098DDF8DC88DDF8E048FCF750FD4FF4A9
:10B68000007182A8FCF74BFD4FF400710DF581604D
:10B69000FCF745FDC84FC94803F0E2F93946FCF70D
:10B6A000AFFD0546FFF7B0FC8246284603F0D8F907
:10B6B0008346C34803F0D4F93946FCF7A1FD06469A
:10B6C000C04803F0CDF93946FCF79AFD07468021C2
:10B6D0000DF50060FCF723FD4FF4FC710DF5C16022
:10B6E000FCF71DFDA9F11000FCF7A5FFB649FCF71A
:10B6F00087FD6FF00401FCF7F3FD05460146304677
:10B70000FCF726FD064629463846FCF721FD05468E
:10B710003046FFF779FC0746304603F0A1F9814631
:10B720002846FFF771FC0646284603F099F90546BE
:10B73000DDF8D408ADF80800DDF8D808ADF80A0047
:10B74000DDF8E408ADF81000DDF8E808ADF8120007
:10B75000DDF8EC08ADF81400DDF8F008ADF81600DF
:10B7600002A80146ADF80C804246ADF80E402346D3
:10B77000CDE900AB03A8891DFFF7CAFBCDE900792D
:10B78000BDF91230BDF910200DF1120104A8FFF728
:10B79000BFFBCDE90065BDF91630BDF914200DF1F0
:10B7A000160105A8FFF7B4FB0025BDF90E00CDE991
:10B7B0000005BDF90C30BDF90A20BDF908100DF5E2
:10B7C000086001F047FEBDF91200CDE90005DDF883
:10B7D0008C68BDF91030BDF90E20BDF90C100DF5C7
:10B7E000086001F037FEBDF91600CDE90005DDF86F
:10B7F0008C48BDF91430BDF91220BDF910100DF5BB
:10B80000086001F027FEDDF89418DDF88C0882AAA4
:10B810000E60DDF898180C60DDF89C1808600420B4
:10B820000346009002A9802000F098F967488168DB
:10B8300021F4806181600DF5816382AA012180205D
:10B84000FEF709FD00200DF5816202EB800152F840
:10B850002030D1F8004142F82040401C00B2C1F82D
:10B8600000314028F1DB00200DF500631D54401C21
:10B8700080B27F28FAD301200446861E02EB80079F
:10B8800052F8201057F8047CC91B002903EB000173
:10B8900002DD01F8014C01E001F8016C401C80B2AE
:10B8A0008028EBD300200DF5C16646F82050401CDF
:10B8B00080B27E28F9D301201C18195614F9014CC6
:10B8C000A14205D506EB800452F8201044F8041C70
:10B8D000401C80B27F28EFD300237E21184656F803
:10B8E0002020052A03D39A4201D901B21346401CF5
:10B8F00080B27E28F3D37E2959D056F821008CB22D
:10B900008708C1F1400046F8215000B2FCF7A1FEC3
:10B91000DFF8BC90DFF8BCA04A465346FCF793FD25
:10B92000FEF798FFDFF8B0804FF0C0452A46434647
:10B93000FCF7FBFDDFF8A4B000225B46FCF783FDBB
:10B94000FCF74EFFDDF8A01800227E2308601046A9
:10B95000011B1D313A2907D856F82010B94203D3EC
:10B96000914201D903B20A46401C80B27E28EFD32F
:10B970007E2B1ED0C3F1400000B2FCF76AFE4A469F
:10B980005346FCF760FDFEF765FF2A464346FCF789
:10B99000CCFD00225B46FCF756FDFCF721FFDDF8ED
:10B9A000C818086002200DF6A40DBDE8F08F002035
:10B9B000F9E70120F7E70000DB0F4940C192813E23
:10B9C0007CD9203E68CEEC3EDB0F49C0002002400F
:10B9D000DE718A8EE4F28F3FFB21094000806640D1
:10B9E000F0B5002300EBD07614E000200EE002EB6F
:10B9F000C31400EB660504EB850554F82070D5F8F8
:10BA000000C044F820C0401CC0B22F60B0EB660FED
:10BA1000EDDB5B1C8B42E8D3F0BD00000449486BB2
:10BA2000C00703D00120C8620249086070470000C7
:10BA300000200040A8000020E32242EA81020249DF
:10BA40008A62086270470000002000400020014622
:10BA500070472DE9FF4F8BB00446DDE91C78DDE926
:10BA60001A9A0020DDF860B00790CDE904781F989D
:10BA7000069019991646CDE900B1CDE9029A3146F2
:10BA800020460E9A00F060FC050009D02A881E9915
:10BA900006EB44108A4208D26FF0010141612AE0AE
:10BAA0006FF002000FB0BDE8F08F0C99416168683B
:10BAB00005E002880C9906EB4212516140680028AB
:10BAC000F7D16C6813E0DDE91E01CDE90801CDE98D
:10BAD000049ACDE9067819990E98CDE902B1009043
:10BAE0002088334629460C9A03F080F86468002CBD
:10BAF000E9D1012007902846FFF7DCFB0798D1E742
:10BB00000349002008600349012048607047000095
:10BB1000A4000020002002402DE9F84F1D46DDE979
:10BB20000AA916460F46804600240CE004FB08F0E4
:10BB300005EB800206EB800153464046CDF80090AD
:10BB400000F00CF8641CBC42F0DB0348816821F46F
:10BB500080618160BDE8F88F002002402DE9FF4F31
:10BB600085B0354940F44062129F8A604FF0040866
:10BB7000C1F80480314B4FF0010AC3F800A000EB7C
:10BB8000D0744FF0000BC4F34F05CDE902BACDE9F4
:10BB900000852B4A5846089B0699FFF7FDFC294E65
:10BBA000B069B0EB640FFBD30020FFF735FDCDE9A2
:10BBB00002BACDE90085089A06994FEA640909FBA3
:10BBC00002111346204A0020FFF7E6FCB069B0EBF3
:10BBD000640FFBD3DFF86480D8F800000128FBD0A5
:10BBE0000020FFF719FDCDE902BACDE90075042365
:10BBF00013490020079AFFF7CFFCB069B0EB640F40
:10BC0000FBD30020FFF708FDCDE902BA0799CDE983
:10BC1000007509FB071204230B490020FFF7BCFC49
:10BC2000B069B0EB640FFBD30020FFF7F5FCC8F858
:10BC300000A009B0BDE8F08F00200240A400002061
:10BC40000000032000100240000403202DE9FF4FF4
:10BC500087B04FF082481E461446C146149D08988E
:10BC6000FCF708FDF04AF14BFCF7EDFBFCF7B8FDE3
:10BC700083464FF47A706043FCF7E6FC4146FCF7DC
:10BC8000F1FA0090FCF768FD07468A465846FCF733
:10BC900063FD3A46534600F01BFA02F033FDFCF711
:10BCA0009FFD824601465846FCF7DCFAFCF754FD3E
:10BCB00002F028FD834650460391FCF74DFD0746F0
:10BCC0005A460191039BFCF7BEFBFCF789FD0390EC
:10BCD00051460098FCF7C6FAFCF73EFD02F012FD53
:10BCE00002460B4638460199FCF7ADFBFCF778FDA0
:10BCF000CDE900A03046FCF7A7FC0746059020469A
:10BD0000FCF7A2FC014604900098FCF7ABFA394618
:10BD1000FCF776FAFCF720FD02F0F4FCFCF760FD7E
:10BD200007464FF47A706843FCF78EFC4146FCF7F7
:10BD300099FAFCF711FD02F0E5FCFCF751FD834692
:10BD4000DFF8EC8239460198FCF702FA5946FCF715
:10BD5000FFF9414600F028FA0199FCF74EFADDE9B7
:10BD6000041882460198FCF77DFA4146FCF748FA30
:10BD7000FCF7F2FC02F0C6FCFCF732FD05900398DC
:10BD80000490A019DDF81C802844032111E0B0FBC9
:10BD9000F1F201FB1202012A06D0B0FBF1F201FB25
:10BDA0001200022802D002E0641E00E0641CA01908
:10BDB0002844B0FBF1F201FB1202002AE7D11598EA
:10BDC0009C49C0B208601598091DC0F3072008609F
:10BDD0004FF085414046FCF70DFA1121FCF780FA3F
:10BDE000FCF7BAFC02F08EFCFCF79DFC914AC1B254
:10BDF00020321160121DC0F307211160111DC0F324
:10BE0000064008604FF07E515046FCF7F3F9FCF70E
:10BE1000A3FC02F077FCFCF786FC8649044630312F
:10BE2000C0B20860091DC4F30720086081484FF0C4
:10BE3000000808308EB195B1022101600798FCF727
:10BE40008BFC00224FF0804300F064F9002213467F
:10BE5000FCF796FC05D0002504E04146EDE7012102
:10BE6000EBE70125DDE90010FCF7FCF94946FCF79A
:10BE7000C7F96FF00101FCF733FA4FF07E5A5146D3
:10BE8000FCF7B8F9FCF768FC02F03CFCFCF74BFC53
:10BE900006460007000EC4F3004140EA4500654C29
:10BEA00008433834206000990398FCF7DBF9FCF76D
:10BEB00053FC02F027FCFCF736FC00F00F01C6F340
:10BEC000031242EA0111221D1160111DC0F3071077
:10BED0000860089808B92068206017F0FF4F0BD061
:10BEE00051463846FCF786F9FCF736FC02F00AFCAE
:10BEF000FCF719FC044600E000244E49E0B244314E
:10BF00000860091DC4F3072017F0FF4F086011D027
:10BF100039460598FCF7A6F94946FCF771F96FF028
:10BF20000101FCF7DDF95146FCF764F9FCF7C8FBA9
:10BF3000064600E0002604F4807006F00F01001DA4
:10BF400040EA01103B4940F004004C31086017F012
:10BF5000FF4009D039460498FCF784F9FCF7FCFB54
:10BF600002F0D0FBFCF7DFFB00F00F01C6F3031279
:10BF700042EA01112F4A50321160111DC0F307101F
:10BF800008601BF0FF4F0BD051465846FCF732F9C2
:10BF9000FCF7E2FB02F0B6FBFCF7C5FB044600E051
:10BFA00000242449E0B258310860091DC4F3072079
:10BFB00008604846FCF7D0FB00221F4B00F0AAF8AF
:10BFC00000221346FCF7DCFB2CD14846B9F1814F27
:10BFD0000ADD6FF00101FCF783F95146FCF70AF91D
:10BFE000FCF76EFB029003E014A0FDF7A7F802989F
:10BFF00004F480710007000E40EA450040EA144056
:10C0000008430C4940F00C0060310860089818B1F2
:10C010000121084600F02CF80F49C1F800800BB050
:10C02000BDE8F08F0DA0E0E7FCA9F1D24D626040C1
:10C030000000704110380040000010406474206D12
:10C0400075737420626520386E73206174206C658E
:10C050006173740D0A0000003C3900406474206D67
:10C06000757374206265204E2A346E730D0A0000C9
:10C070000E4B0E4A10B51C330128106820F08300C7
:10C080001060106809D0D12444EA410108431060CF
:10C09000186820F08000186010BDD02444EA4101E7
:10C0A00008431060186840F08000F4E70038004052
:10C0B0000649D1F8042222F00C02C1F80422D1F87A
:10C0C000042242EA8000C1F80402704700300040B8
:10C0D0002DE9F04114461D4606460F46FCF743FE87
:10C0E00000F07040B0F1004F0FD0201C18BF0120AD
:10C0F000284320F00040C0F17F6000F1E040C00F15
:10C1000002BF20462946BDE8F08130463946BDE8E9
:10C11000F081000070B514461D460E46002814BF7D
:10C1200001210021314321F00041C1F17F6101F182
:10C13000E041C90F16D1002C14BF01210021294371
:10C1400021F00041C1F17F6101F1E041C90F09D146
:10C150001449B1EB460F08BF00281CD0690008BF86
:10C16000002C18D03146FCF7A3FD024640F2FF70C8
:10C1700030EA11500DD0F017B0EBE17F09D008463E
:10C1800065F31E0084460B4620466146FCF758F9CD
:10C190000246104670BD0120FDF70EFCBDE8704060
:10C1A000FDF723BB0000E0FF70B5054620F000401E
:10C1B000C0F1FF400C46C00F05D124F00040C0F193
:10C1C000FF40C00F17D02846FCF7A8FC6FEAD051FB
:10C1D00011F0FF0F08BF70BDE917B1EBE07F08BF9A
:10C1E00070BD014664F31E01BDE870400A46014679
:10C1F0001046FCF702B84FF07F40B0EB450F18BF78
:10C200005FEA4400DFD10120FDF7D6FBBDE87040B6
:10C21000FDF705BB4FF040214A68D207FCD1C2B2FE
:10C220000A60704770B50D46044602E02946FFF7E4
:10C23000F1FF14F8010B0028F8D170BD10B50028EB
:10C2400021D0114B0022001F196803E0814203D85E
:10C250000A4649680029F9D152B11368841A9C42F0
:10C2600004D1006818441060104602E0506000E0FD
:10C27000186039B102680B1A934203D10B681A4453
:10C2800002604968416010BDBC0000204FF461614C
:10C290000148FBF744BF000000A5022010B50024B0
:10C2A0004FF462611848FBF73AFF42F2A441174885
:10C2B000FBF735FF40F674611548FBF730FF4FF48C
:10C2C000EA511448FBF72BFF002310495A1E40F295
:10C2D000D510604301EB4000641C80F85427E4B2A1
:10C2E000C0F85637082CF2D30A4B00207521414381
:10C2F00003EBC101401C0A7081F8A423C0B281F88D
:10C30000A5230828F2D310BD00A50220008002203A
:10C3100000B402207059022030B40B464168094A2B
:10C3200029B10024147059600168196001E00121ED
:10C33000117000F1100130BC4FF4616203F108008C
:10C34000FBF7D4BE5E0000202DE9F05F88468146F1
:10C3500092460C210120DDF838B0FBF7EBFE070018
:10C3600003D0002408EB491535E020A001F000F8C7
:10C3700033E04C452DD008EB4416A869B169FBF7B2
:10C3800039FF20F00040FCF7E7F9DDE90A23FCF76C
:10C390000FFA1ED3F169E869FBF72CFF20F000408B
:10C3A000FCF7DAF9DDE90C23FCF702FA11D368890E
:10C3B0007189401AFCF74DF921F000415A460F9B54
:10C3C000FCF7F6F905D3A0B23946FEF72BFAC01CEC
:10C3D00006D0641C24B25445CBDB3846BDE8F09F40
:10C3E0003846FEF767FF0027F7E700004661696CF3
:10C3F000656420746F20616C6C6F63617465206587
:10C400007073696C6F6E206E65696768626F7572B4
:10C41000732E00000121C01D814041F0250002491A
:10C42000C1F8D8007047000000300040064A02EB17
:10C43000800021B1012904D0022901D1102101631A
:10C4400070473021FBE70000000002400149012055
:10C45000486070470000024010B5084B002203EB13
:10C460008004226301228240012903D0586A1043CC
:10C47000586210BD186A1043186210BD00000240D7
:10C48000704770472DE9F04F00238BB00C460646ED
:10C4900000931846194601937522424304EBC202E9
:10C4A00092F9A423002A03DD0DF80100491CC9B24A
:10C4B000401CC0B20828EFD369B100206D4608E0E7
:10C4C0002A5675277A4304EBC202401C82F8A53332
:10C4D000C0B28842F4D300200390099002900890E3
:10C4E00004900146059040F2D512424306EB420209
:10C4F00092F8FA2A012A03D102AA5054491CC9B25F
:10C50000401CC0B20828EED30A91002108460DF164
:10C51000200B7522424304EBC20292F9A423521C61
:10C5200003D10BF80100491CC9B2401CC0B2082855
:10C53000EFD300207521414304EBC10191F8A433EE
:10C5400004A90B54401CC0B20828F3D34FF0000AD2
:10C55000554650465CE002A840F2D51210F9091089
:10C560005143B24A02EB4101D1F8561714294CD17C
:10C5700010F80980002004AA06A91756474502D1E1
:10C5800048556D1CEDB2401CC0B20828F5D340F2EE
:10C59000D51108FB01F006EB4007EDB39DF818003C
:10C5A0007522504304EBC00097F8541700F8011BA4
:10C5B00097F8561700F8011B07F25A711C22FBF777
:10C5C00095FD9DF818007522504304EBC00007F25A
:10C5D00076714FF461721E30FBF788FD9DF81800EC
:10C5E0007522504304EBC00097F8FA1A80F8A213A2
:10C5F00097F8FB1A80F8A313012180F8A51390F98E
:10C60000A623012A01DD80F8A61309F10100C0B2BA
:10C610000A998146884200E019E09CD300273846F9
:10C62000EA467521414304EBC10191F9A4130029A5
:10C6300003DD0AF807007F1CFFB2401CC0B20828C7
:10C64000EFD3002F7DD000254FF0FF39E7E01BF935
:10C650000A007521484304EBC00097F8542700F8FE
:10C66000012B97F8561700F8011B07F25A711C228C
:10C67000FBF73CFD1BF90A007522504304EBC00098
:10C6800007F276714FF461721E30FBF72FFD1BF934
:10C690000A007521484304EBC00097F8FA2A80F895
:10C6A000A22397F8FB1A80F8A31380F8A483012132
:10C6B00080F8A51380F8A6130AF1010000F0FF0A24
:10C6C000A3E71AF905007521484304EBC00090F870
:10C6D000A51300293CD190F9A633D0F80220D0F858
:10C6E000061003F1010880F8A6837D2B02DB7D2371
:10C6F00080F8A6334E4B99422BDA22F00043B3F177
:10C700007E5F26DD00F8019B4FF0000800F8018BEA
:10C710001C21FBF704FD1AF905007521484304EBC1
:10C72000C0004FF461711E30FBF7F9FC1AF90500E7
:10C730007522504304EBC00080F8A28380F8A383E5
:10C7400000E06FE080F8A49380F8A59380F8A683BA
:10C7500063E022F00042B2F17F5FD3DA21F00042C1
:10C7600034498A42CEDA90F9A6133C29CADA90F904
:10C77000A41340F2D513594306EB4101027881F826
:10C78000542790F9A4134278594306EB4101D0464F
:10C79000C1F85627811C90F9A4031C22584306EBCC
:10C7A000400303F25A70FBF7A1FC18F9050075214C
:10C7B000484304EBC00101F11E0391F9A40340F2C8
:10C7C000D511484306EB40004FF46172194600F260
:10C7D0007670FBF78BFC18F905007521484304EBD4
:10C7E000C00040F2D51390F9A41390F8A223594346
:10C7F00006EB410181F8FA2A90F9A41390F8A323DB
:10C80000594306EB410181F8FB2A90F9A403012169
:10C81000584306EB400080F8FC1A6D1CEDB2BD4297
:10C82000FFF44FAF0BB0BDE8F08F00000080022096
:10C83000CDCC4C3F0000604010B500210220FFF736
:10C84000F5FD00210320FFF7F1FD00210420FFF793
:10C85000EDFD00210520FFF7E9FD00210620FFF78F
:10C86000E5FD00210720FFF7E1FD00210820FFF78B
:10C87000DDFD00210920FFF7D9FD00210A20FFF787
:10C88000D5FD00210B20FFF7D1FD00210C20FFF783
:10C89000CDFD00210D20FFF7C9FD00210E20FFF77F
:10C8A000C5FD00210F20FFF7C1FD00211020FFF77B
:10C8B000BDFD0021BDE810401120FFF7B7BD00000D
:10C8C000F0B5104DDDE90567D5F8144124F4706426
:10C8D00044EA002020F4704040EA013020F4702047
:10C8E00040EA024020F4700040EA035020F07060FB
:10C8F00040EA066020F0704040EA0770C5F8140175
:10C90000F0BD000000300040094BD3F8142201288C
:10C9100008D022F00400012907D020F00800C3F855
:10C920001402704742F00400F5E740F00800F6E713
:10C93000003000402DE9F04DC84A002490B09142EB
:10C9400005DA21F00043934201D805D120B110B09F
:10C95000BDE8F04DFCF744BFB1F5801F1BDA53EA88
:10C96000000209D0002911DA0120FDF725F810B0E6
:10C97000BDE8F04DFCF739BF0220FDF71DF8FCF7CC
:10C9800027FF10B081F00041BDE8F08D6FF0350455
:10C990003622FBF739FE04EB2152C1F31308B049EC
:10C9A000A2F2FF33414401F4801282F07F6103EB75
:10C9B000225281F04051009241EA08010022A94B25
:10C9C000FBF73BFD044608F10200A74EC0F313003D
:10C9D0000D467E44032867D2D6E900232046FBF7A4
:10C9E000CFFE1ED10098002802BFD6E9000110B08A
:10C9F000BDE8F08DFBF72DFE07460C469B4A9C4B8D
:10CA0000FBF721FD06460D469A4A9B4B38462146C8
:10CA1000FBF719FD10B032462B46BDE8F04DFBF791
:10CA20006BBC4FF05532954B20462946FBF70BFD6A
:10CA30000022934BFBF704FD06460F4622462B4689
:10CA400010461946FBF7FFFC32463B46FBF7FBFC62
:10CA5000064600980F46F0B1FBF7FBFD80468A467C
:10CA6000824A834BFBF7EFFC32463B46FBF7E8FC80
:10CA700022462B46FBF7E1FC05460C467D4A7E4BE1
:10CA800040465146FBF7DFFC10B02A462346BDE87E
:10CA9000F04DFBF7D2BC0B4610B03246204629467B
:10CAA000BDE8F04DFBF7C9BC00224FF080432046A3
:10CAB000FBF722FC02460B4620462946FBF735FDD4
:10CAC00006460F460098FBF7C4FDCDE90401324647
:10CAD0003B4610463946FBF7B6FC0C9069480C9A69
:10CAE0004044019009910B461046FBF7ACFC82468E
:10CAF000024665488B46C8F151080B4608F5D72811
:10CB000003217844FCF798FD52465B46FBF79BFCFB
:10CB10000A905E480D9152465B4604217844FCF72A
:10CB20008BFD099B0C9AFBF78EFC844601980D9BAC
:10CB300040EA080860460A9AFBF7DEFB8346089144
:10CB4000B8F1000F4EDD4FF0FF3220462946FBF7CB
:10CB50005BFD22462B46FBF776FC804600988A4612
:10CB600060B3DDE90401414A414BFBF76CFC0991DC
:10CB700000905A4640465146089BFBF7BDFB3246A3
:10CB80003B46FBF760FC099B009AFBF7B5FB42466E
:10CB90005346FBF755FC22462B46FBF74EFC04465A
:10CBA0000D46DDE90401334A334BFBF74CFC10B072
:10CBB00022462B46BDE8F04DFBF73FBC5A464046A7
:10CBC000089BFBF799FB32463B46FBF73CFC424691
:10CBD0005346FBF735FC10B022462B46BDE8F04D1E
:10CBE000FBF72EBC009840B3DDE904011F4A204B3F
:10CBF000FBF729FC80468A465A4620462946089B70
:10CC0000FBF71BFC32463B46FBF71DFC42465346F6
:10CC1000FBF713FC22462B46FBF70FFC04460D46A0
:10CC2000DDE90401134A144BFBF70DFC10B022465A
:10CC30002B46BDE8F04DFBF700BC0B465A4620469C
:10CC40002946FBF7FAFB32463B46FBF7FCFB10B0EC
:10CC500022462B46BDE8F04DFBF7F2BB0000F07F0B
:10CC6000645F09000000F03F92330000763C7935A4
:10CC7000EF39EA3D0000E0FE422EE63F5555D53F34
:10CC80000000E03F86EBF9FF2A3200002832000066
:10CC90002DE9F041044630480025814205DA21F0B3
:10CCA0000042824201D805D124B12046BDE8F041BE
:10CCB000FCF796BDB1F5801F1BDA52EA040008D0DC
:10CCC00000290FDA0120FCF777FEBDE8F041FCF700
:10CCD0008CBD0220FCF770FEFCF77AFD81F000416C
:10CCE000BDE8F0816FF0350536222046FBF78CFC5D
:10CCF000044605EB2150A0F2FF32D00F40F2FF3383
:10CD00001B1A0D4663F31F551044FBF7A2FC0646A1
:10CD10000F4629462046FFF70DFE104A104BFBF741
:10CD200092FB04460D460F4A0F4B30463946FBF73F
:10CD30008AFB22462B46FBF7DFFA05460C460B4AD8
:10CD40000B4B30463946FBF77EFB2A462346BDE8AF
:10CD5000F041FBF7D1BA00000000F07F0EE5261588
:10CD60007BCBDB3F362BF111F3FE593D00609F502A
:10CD70001344D33F1FB5FE4803904FF400410020F9
:10CD8000FCF786F80121084601F0BCFD01210320D3
:10CD900001F0B8FD0121042001F0B4FD01210520BE
:10CDA00001F0B0FD01210D2001F0ACFD01210720B3
:10CDB00001F0A8FDFFF740FD0120FDF77FFCFDF726
:10CDC0005DFCEC4C4125D4E908018DE8230094E892
:10CDD0000F00FDF7D7FCFDF799FB0095D4E90001A2
:10CDE00001231A46FDF75CFB01F080FF0022E249B7
:10CDF0004FF0402002F052FE0022E049A80702F066
:10CE00000BF800210920FFF711FB00210220FFF79A
:10CE10000DFBDB484FF4817140F6070201804FF4AF
:10CE20004171418040F2065181804FF4E161C1803F
:10CE300001218160D348028040F20562428040F2C5
:10CE4000034282805210C2808160FFF727FA4FF0C0
:10CE5000804460687D21B0FBF1F0CB49091ACBA07A
:10CE600001F05CFA204601F0EBFF0022CC4920469D
:10CE700001F0D2FF0021012002F0CCFDC948D0F81A
:10CE8000081241F00801C0F80812D0F8081221F089
:10CE90000401C0F80812B74C4FF0FF30A062C34D38
:10CEA0000022C149284601F0B7FFC249C248C04A22
:10CEB0008DE807000B1F412280210220FDF77AFA3E
:10CEC000284601F0BDFFD4E906BA04F11C01081F91
:10CED000CDE900014FF4FA732A15B849002001F09A
:10CEE0008FFCA0692061E169616103460246014649
:10CEF00001F08CFBE36961691A46084601F0CEFB3C
:10CF00000024AF4FAF4E8025042306EB442107EBEE
:10CF100084201A46009500F0F9F9641C202CF3DBFC
:10CF2000DFF8A4820024042308EB442108EB8420CA
:10CF30001A46009500F0EAF9641C202CF3DBDFF8B8
:10CF40008C920024042309EB442106EB44201A466A
:10CF5000009500F0DBF9641C202CF3DB9C4F0024CF
:10CF6000042306EB442107EB84201A46009500F0C9
:10CF7000CDF9641C202CF3DB904F0024042307EB35
:10CF8000442107EB84201A46009500F0BFF9641C89
:10CF9000202CF3DB8F4D002480200090042305EB30
:10CFA000442106EB44201A4600F0B0F9641C202C02
:10CFB000F2DB0424434600941A4620218020019489
:10CFC000FEF7AAFD814B00941A462021802001948F
:10CFD000FEF7A2FD3B460094B9461A462021802068
:10CFE0000194FEF799FD2B4600941A4620218020DB
:10CFF0000194FEF791FDE701CDE900743346424606
:10D000008021202002F0A4FDCDE9007443466F4A40
:10D010008021202002F09CFDCDE900746B4B4A4634
:10D020008021202002F094FDCDE900744B462A4671
:10D030008021202002F08CFD2B46644A8021202094
:10D04000FDF709F9644C4A46234680212020FDF76C
:10D0500002F90020614E67148100401C4A590B59A7
:10D06000520802EB53028A51B842F5DB5C4A802138
:10D070002020FEF7B5FC0BEB4B00410001EB4A0012
:10D080000A21B0FBF1F0FBF7F5FA02460B4600204F
:10D09000544900F0FBFB04460D460398FBF75CFB8C
:10D0A00022462B46FBF7CFF901F02CFBFBF73BFBAD
:10D0B00002460021084601F033F9314DDFF8B4A0F3
:10D0C0004FF0000BC5F80CB04749DAF82C00A86007
:10D0D00048685FEA000949D00026884689E008EBE5
:10D0E0004600002407893BE0C6EB4611C1EB062150
:10D0F000EA6808EB810004EBC401224400EB410024
:10D1000002EB420205EBC20241691161EA688369E0
:10D11000224402EB420205EBC2025361EA68036952
:10D12000224402EB420205EBC2029361EA68224408
:10D1300002EB420205EBC202D161808BFBF784FA5D
:10D14000E968214401EB410105EBC1010862E8688F
:10D150002649204400EB400005EBC000641C4162FE
:10D16000A742C1DCE8683844E86041E052E00000D2
:10D17000CDCC4C3D000000200018150000001643E7
:10D180000050022000400220809698004672616D97
:10D19000652074696D65202564200D0A000000007B
:10D1A0008096184B003000400000D843001000402B
:10D1B00000FE002004300240007E0020000001201C
:10D1C00000820020008001200080002000C000209C
:10D1D000000201200040012000C0012000000220C8
:10D1E000000002200000244000A502200000204191
:10D1F000761CB1453FF673AFE86800280ADD00EB06
:10D200004001102000EBC10082B20F494FF60270BE
:10D2100001F01BFE01F034FE0C4DDAF82C005446F0
:10D22000A860E868002808DD102101EB401082B2F8
:10D2300029464FF6037001F008FEC5F80CB0E06A0D
:10D24000401CE06203E60000005002200040022083
:10D25000F0B50B30154D20F007010024144A0FE003
:10D2600003688B420BD38B4205D95E1A431847687B
:10D27000C3E9006700E04368136002C004E0021DD8
:10D2800010680028ECD12046002802D1286808B197
:10D290000020F0BD064A07481060074A121A22F023
:10D2A0000702C0E9002401202860D7E7C000002061
:10D2B000BC0000204C0D0020481D002070B5114C12
:10D2C00000250646A5620320606001211D20FFF7AE
:10D2D000C3F800211D20FFF7A9F801211620FFF750
:10D2E000BBF800211620FFF7A1F80748606225640B
:10D2F0006564A56425650EB11F2000E00720E06489
:10D3000070BD000000C000402A0001007FB50D463E
:10D310000121089C039100268DE858001346014620
:10D320002A460420FEF738F90548816D0091A14294
:10D33000FBD304B00420BDE87040FEF76DB90000D7
:10D3400000100240094BD3F81422012808D022F023
:10D350001000012907D020F02000C3F81402704704
:10D3600042F01000F5E740F02000F6E70030004002
:10D3700010B540B1017831B10A49FEF753FF0949B0
:10D3800009A0FEF74FFFFBF711FF0068FBF7D0FA8B
:10D390000449FEF747FFBDE81040024903A0FEF72D
:10D3A00041BF0000B80000203A2000000A00000041
:10D3B00030B5194CD4F8205225F08005C4F820521D
:10D3C000D4F8205245EAC010C4F82002D4F8240250
:10D3D00020F08000C4F82402D4F8240240EAC110EE
:10D3E000C4F82402D4F8200220F06000C4F820021F
:10D3F000D4F8200240EA4210C4F82002D4F82402F3
:10D4000020F06000C4F82402D4F8240240EA43105B
:10D41000C4F8240230BD0000003000400C4AD2F8AD
:10D42000203223F01803C2F82032D2F8203243EA27
:10D43000C000C2F82002D2F8240220F01800C2F87E
:10D440002402D2F8240240EAC100C2F82402704744
:10D45000003000402DE9F0478146DDE90847984655
:10D4600016460846FBF7E7F805463046FBF7E3F8B3
:10D470002946FDF7D5FB06464046FBF7DCF8054696
:10D480002046FBF7D8F82946FDF7CAFB05460146BA
:10D490003046FAF7AFFE3946FAF75AFE0446154F02
:10D4A000DFF8548004E041462046FAF7A3FE044624
:10D4B000BC42F8DAC246DFF84480444505D3514601
:10D4C0002046FAF745FE0446F7E739462046FAF7C4
:10D4D000C9FEFDF7F7FA0A49FAF792FE3946FAF75C
:10D4E000C1FEC9F80060C9E90154C9F80C00BDE8E3
:10D4F000F0870000DB0F4940DB0FC940DB0F49C05C
:10D50000000034430549012800D0491E0448C0F8F2
:10D5100064110449C0F8681170470000FF06013F1C
:10D52000003000403F09619A704700000F4A10B573
:10D5300040F6F801C2F850114FF40471C2F8B81166
:10D540004FF44A61012801D141F6B371C2F860116C
:10D55000074CE06940F01000E06100216420FDF715
:10D560008BFEE06920F01000E06110BD003000404B
:10D5700000C000402DE9F04100244FF4FA66214636
:10D580003046FDF779FE134FD7F8700100F004051F
:10D590001BE0D7F8680120F0E060C7F86801D7F811
:10D5A000680140EA0460C7F86801641C072C00DDCC
:10D5B000002400213046FDF75FFED7F870010021FE
:10D5C00000F004053046FDF757FE042DE1D1BDE81B
:10D5D000F0810000003000400E4A00B5D2F88411FE
:10D5E00021F07061C2F88411D2F884110A4B1943FA
:10D5F000C2F8841102F5C27200F032F9506807498E
:10D6000000F470600843506040F292409060032044
:10D61000D06000BD003000403F8820B4BF400420EF
:10D620000448D0F89C11C0F89C11D0F8A011C0F8A3
:10D63000A0117047003000402DE9F34F89B0002061
:10D640004FF0400A0690CDE9000A884601464FF4A3
:10D65000A87360220998FEF7F9FA00210846FEF740
:10D6600007FDDFF86C91D9F8881121F47061C9F8D1
:10D670008811D9F88861002407942546A3460294AE
:10D68000039404940594641CE4B2102C4CD046EA34
:10D6900004204F46C9F88801CDE900BA4FF4A873B9
:10D6A000602200210998FEF7D1FA00210846FEF712
:10D6B000DFFC00214FF47A70FDF7DEFDD7F894010E
:10D6C00000F0040004282BD00027B8F1000F29D067
:10D6D0004FF47A71B8FBF1F0FAF7B6FF0999FAF74F
:10D6E00037FDCDE900BA4FF4A87360220021FEF7A0
:10D6F000ADFA00210846FEF7BBFC00214FF47A701A
:10D70000FDF7BAFDD9F8940100F00400042809D00F
:10D710000020002FB7D00028B5D002A80455B2E7EA
:10D720000127D2E70120F4E7002002A90A5C12B128
:10D7300005B906906D1C401C1028F7DB5DB10698FA
:10D7400005EBD57100EB610046EA0021C9F88811AC
:10D750000BB0BDE8F08F5F4600244FF4A87B4D4628
:10D76000641CE4B2102C26D046EA0420C5F88801D7
:10D77000CDE9007A5B46602200210998FEF766FA3F
:10D7800000210846FEF774FC00214FF47A70FDF783
:10D7900073FDD5F8940100F004000428E0D102F0F4
:10D7A000F9F907900B49884207DB4FF07C51099843
:10D7B000FAF720FD0AE00798F4E70998FAF7CCFF9A
:10D7C000054A064BFAF739FEFBF70AF8099052E7CB
:10D7D000003000409A99193F9A9999999999C93FAF
:10D7E000104B10B5D3F8A441012814D024F0020046
:10D7F000012A13D020F00100C3F8A401D3F8980146
:10D8000020F03000C3F89801D3F8980140EA0110E5
:10D81000C3F8980110BD44F00200E9E740F00100B0
:10D82000EAE70000003000400C4A0128D2F8A401C9
:10D8300010D020F00400C2F8A401D2F8980120F022
:10D840000600C2F89801D2F8980140EA4100C2F8F7
:10D850009801704740F00400EDE700000030004000
:10D8600006490128D1F8840104D020F00200C1F853
:10D870008401704740F00200F9E7000000300040EA
:10D8800001491F208860704700C000402DE9F04D1D
:10D8900016460F4694B01C4621F0004123F000428A
:10D8A000002814BF4FF0010C4FF0000C0CEB470C9C
:10D8B000FE4B0CEB03054FEA630C65452BD335009B
:10D8C00018BF012505EB44051D44F94B9D4222D3A9
:10D8D000F84B52EA060C02D09F4205D148B914B069
:10D8E00000201946BDE8F08D002808BF4FF0000C5D
:10D8F00001D04FF0010C0CEB470313F5001F0AD8C1
:10D90000002E14BF4FF0010C4FF0000C0CEB440341
:10D9100013F5001F07D914B0324623463946BDE837
:10D92000F04DFBF760BFDFF890834FF0000A002F47
:10D93000B8BF424523DAE14B9A42A8BF4FF0020A32
:10D940001DDADC4B93421ADCDD4B03EB2253142B24
:10D9500008DDC3F1340C26FA0CF303FA0CFCB445D1
:10D960000DD108E05EB9C3F1140C22FA0CF303FAEE
:10D970000CFC944503D103F00103C3F1020A51EA00
:10D9800000031BD1002C19DA002F18BFBAF1020FC7
:10D9900002D0BAF1010F07D00220FCF70DF814B045
:10D9A000BDE8F04DFBF714BF0220FCF705F8FBF7CC
:10D9B0000FFF14B081F00041BDE8F08D330070D14D
:10D9C000424525D107F1804212F5801201BF00289F
:10D9D0000020B84914B008BFBDE8F08DB5488842B2
:10D9E00007DC002CA1BF1846214614B0BDE8F08D1D
:10D9F00007E0002CBFBF184684F0004114B0BDE81A
:10DA0000F08DB0497944D1E9000114B0BDE8F08D42
:10DA1000DFF8A0C262452AD1002C24DA39B1414591
:10DA200017D1002804BF002002461CD106E040B1F7
:10DA30000220FBF7C1FFFBF7DEFE0A46394600F085
:10DA4000D7BA9D4A394614B0002062F31E01BDE8E2
:10DA5000F08D08DA14B03B46BDE8F04D02460020D8
:10DA60006146FAF762BD14B03946BDE8F08D414514
:10DA700017DAB4F1804F0CD0A4F10053B3F1FF5387
:10DA80000FD13B1E0DDB14B01946BDE8F04D01F07F
:10DA9000F1B83B4614B00246BDE8F04D1946FAF71E
:10DAA000D2BC050027F000433AD1E1B1414537D15E
:10DAB000002F06DD002CA1BF0020414614B0BDE8B8
:10DAC000F08D002F01DD002C1FDB002F16DA002C5B
:10DAD00014DBBAF1010F4FF0000014BF76497A4908
